:020000020000FC
:0200000028C016
:0200040018954D
:02000800189549
:02000C00189545
:02001000189541
:0200140018953D
:02001800189539
:02001C00189535
:02002000189531
:0200240018952D
:02002800189529
:02002C00189525
:02003000189521
:0200340018951D
:02003800189519
:02003C00189515
:02004000189511
:0200440018950D
:02004800189509
:02004C00189505
:1000500018950FE514E00DBF1EBF2FEF2ABB23E05C
:100060002BBB20E021BB24E022BB30E084E022E077
:1000700025BF20E42BBF789422278299FECF3395A9
:10008000343009F430E0EEEDF0E0E30F24912BBBC7
:100090000BD0829BFDCF8299F2CF19D0B499FECFBD
:1000A00016D0829BFECFE9CF292F920F920F920F8D
:1000B000920F920F9395292F26952158A22F25E074
:1000C00023BF20E42ABF21E028BF7894089540E4AC
:1000D0005FE160E0415050406040E0F70895030662
:0200E0000C0012
:00000001FF
