:020000020000FC
:0200000028C016
:0200040018954D
:02000800189549
:02000C00189545
:02001000189541
:0200140018953D
:02001800189539
:02001C00189535
:02002000189531
:0200240018952D
:02002800189529
:02002C00189525
:02003000189521
:0200340018951D
:02003800189519
:02003C00189515
:02004000189511
:0200440018950D
:02004800189509
:02004C00189505
:1000500018950FE514E00DBF1EBF0EEF11E00ABBAF
:100060001BBB0FEF10E007BB18BB0FEF10E004BB8A
:1000700015BB0FEF10E001BB12BB00E0502F77273C
:100080008827C899FECF7BBB88BB05BB12BBC89B2A
:10009000FACF1FD065B302BB68B305BB6BB308BB17
:1000A00020D05BBBC899F6CF7BB388B305B312B33E
:1000B00066276BBB68BB65BB62BBC89BFECF09D024
:1000C000E0CF20E03AE648E1215030404040E0F700
:1000D000089520E536E241E0215030404040A0F74D
:1000E0000895052F050F050F15E0010F502FD9CFEB
:0C00F00008953F065B4F666D7D077F6F33
:00000001FF
