:020000020000FC
:0200000028C016
:0200040082C0B8
:02000800189549
:02000C00189545
:02001000189541
:0200140018953D
:02001800189539
:02001C00189535
:02002000189531
:02002400B2C068
:02002800189529
:02002C00189525
:02003000189521
:0200340018951D
:02003800189519
:02003C00189515
:02004000189511
:0200440018950D
:02004800189509
:02004C00189505
:1000500018950FE50DBF04E00EBF0FEF07BB04E0DE
:1000600008BB0FEF04BB09EF01BB06E002BB01E0D8
:1000700009BF02E005BF00E40BBF72E366278827D3
:1000800001E0F02E2227332744271DD081FDFDCF2C
:100090008199FBCF0F2DF00EF00EF00EF00EF00E4A
:1000A000F3940F2D06950158E02E05E003BF00E400
:1000B0000ABF01E008BF789411272227332744277D
:1000C000689481F9E2CF7A95B9F472E3639563306D
:1000D00011F4662700C0E2E1E60F0081EAEFF0E0EC
:1000E000E00F049105BB06B3B6B30770B078069570
:1000F00008F404E00B2B08BB08953F065B4F666DC8
:100100007D077F6F7C775E4076300F930FB70F933C
:10011000B79B27C0002703BF92B708B701FD13950F
:100120009458104004E0D02EAA27092F512F000F19
:10013000551FAA1FDA94D9F7992711270D57504058
:10014000A04020F09395D1F71395F8CF0ED0E89406
:1001500081F91127002703BFC7980F910FBF0F9197
:1001600008952AE03BE04CE0F2CF222733274427D2
:100170009456104010F02395FBCF9C599A5010F0E4
:100180003395FCCF965F492F08950F930FB70F93C8
:10019000B79909C0EA9419F404E802BFC79A0F910D
:1001A0000FBF0F91189513951F31C8F3E89481F98B
:1001B000002703BF2DE03EE04FE0C7980F910FBF2F
:0401C0000F910895FE
:00000001FF
